{
  "contractName": "GiveTogether",
  "abi": [
    {
      "inputs": [],
      "stateMutability": "nonpayable",
      "type": "constructor"
    },
    {
      "inputs": [
        {
          "internalType": "address",
          "name": "",
          "type": "address"
        }
      ],
      "name": "charities",
      "outputs": [
        {
          "internalType": "string",
          "name": "name",
          "type": "string"
        },
        {
          "internalType": "string",
          "name": "website",
          "type": "string"
        },
        {
          "internalType": "bool",
          "name": "isCharity",
          "type": "bool"
        }
      ],
      "stateMutability": "view",
      "type": "function",
      "constant": true
    },
    {
      "inputs": [
        {
          "internalType": "uint256",
          "name": "",
          "type": "uint256"
        }
      ],
      "name": "charityAccts",
      "outputs": [
        {
          "internalType": "address payable",
          "name": "",
          "type": "address"
        }
      ],
      "stateMutability": "view",
      "type": "function",
      "constant": true
    },
    {
      "inputs": [],
      "name": "currentCharity",
      "outputs": [
        {
          "internalType": "address payable",
          "name": "",
          "type": "address"
        }
      ],
      "stateMutability": "view",
      "type": "function",
      "constant": true
    },
    {
      "inputs": [],
      "name": "currentDate",
      "outputs": [
        {
          "internalType": "uint256",
          "name": "",
          "type": "uint256"
        }
      ],
      "stateMutability": "view",
      "type": "function",
      "constant": true
    },
    {
      "inputs": [],
      "name": "owner",
      "outputs": [
        {
          "internalType": "address",
          "name": "",
          "type": "address"
        }
      ],
      "stateMutability": "view",
      "type": "function",
      "constant": true
    },
    {
      "inputs": [],
      "name": "rDaiBalance",
      "outputs": [
        {
          "internalType": "uint256",
          "name": "",
          "type": "uint256"
        }
      ],
      "stateMutability": "view",
      "type": "function",
      "constant": true
    },
    {
      "inputs": [],
      "name": "sendDonationTime",
      "outputs": [
        {
          "internalType": "uint256",
          "name": "",
          "type": "uint256"
        }
      ],
      "stateMutability": "view",
      "type": "function",
      "constant": true
    },
    {
      "inputs": [],
      "name": "totalDonation",
      "outputs": [
        {
          "internalType": "uint256",
          "name": "",
          "type": "uint256"
        }
      ],
      "stateMutability": "view",
      "type": "function",
      "constant": true
    },
    {
      "stateMutability": "payable",
      "type": "receive",
      "payable": true
    },
    {
      "inputs": [],
      "name": "generateNewCharity",
      "outputs": [
        {
          "internalType": "address payable",
          "name": "",
          "type": "address"
        }
      ],
      "stateMutability": "nonpayable",
      "type": "function"
    },
    {
      "inputs": [],
      "name": "withdraw",
      "outputs": [],
      "stateMutability": "nonpayable",
      "type": "function"
    },
    {
      "inputs": [
        {
          "internalType": "address payable",
          "name": "_addr",
          "type": "address"
        },
        {
          "internalType": "string",
          "name": "_name",
          "type": "string"
        },
        {
          "internalType": "string",
          "name": "_website",
          "type": "string"
        }
      ],
      "name": "addCharity",
      "outputs": [],
      "stateMutability": "nonpayable",
      "type": "function"
    },
    {
      "inputs": [
        {
          "internalType": "address payable",
          "name": "_addr",
          "type": "address"
        }
      ],
      "name": "removeCharity",
      "outputs": [],
      "stateMutability": "nonpayable",
      "type": "function"
    },
    {
      "inputs": [
        {
          "internalType": "uint256",
          "name": "_time",
          "type": "uint256"
        }
      ],
      "name": "setSendDonationTime",
      "outputs": [],
      "stateMutability": "nonpayable",
      "type": "function"
    },
    {
      "inputs": [
        {
          "internalType": "address",
          "name": "addr",
          "type": "address"
        }
      ],
      "name": "getCharities",
      "outputs": [
        {
          "internalType": "address",
          "name": "",
          "type": "address"
        },
        {
          "internalType": "string",
          "name": "",
          "type": "string"
        },
        {
          "internalType": "string",
          "name": "",
          "type": "string"
        },
        {
          "internalType": "bool",
          "name": "",
          "type": "bool"
        }
      ],
      "stateMutability": "view",
      "type": "function",
      "constant": true
    },
    {
      "inputs": [],
      "name": "getNumCharities",
      "outputs": [
        {
          "internalType": "uint256",
          "name": "",
          "type": "uint256"
        }
      ],
      "stateMutability": "view",
      "type": "function",
      "constant": true
    }
  ],
  "bytecode": "0x608060405262093a806006553480156200001857600080fd5b5033600160006101000a81548173ffffffffffffffffffffffffffffffffffffffff021916908373ffffffffffffffffffffffffffffffffffffffff160217905550620000eb73d3f81260a44a1df7a7269cf66abd9c7e4f8cdcd16040518060400160405280600681526020017f48656966657200000000000000000000000000000000000000000000000000008152506040518060400160405280601781526020017f68747470733a2f2f7777772e6865696665722e6f72672f00000000000000000081525062000d3e60201b60201c565b6200017c73c1d5fd1f0d969075040988e37df3643af724995d6040518060400160405280600981526020017f47726163652041696400000000000000000000000000000000000000000000008152506040518060400160405280601581526020017f68747470733a2f2f67726163656169642e6f72672f000000000000000000000081525062000d3e60201b60201c565b620001f1736e4c6adfa15cada2699fd2c16290ea1f71d0f9d76040518060400160405280601a81526020017f4272656173742043616e63657220537570706f72742028554b290000000000008152506040518060600160405280602381526020016200275a6023913962000d3e60201b60201c565b620002827350990f09d4f0cb864b8e046e7edc749de410916b6040518060400160405280600381526020017f33353000000000000000000000000000000000000000000000000000000000008152506040518060400160405280601081526020017f68747470733a2f2f3335302e6f72672f0000000000000000000000000000000081525062000d3e60201b60201c565b6200031373b189f76323678e094d4996d182a792e52369c0056040518060400160405280600381526020017f45464600000000000000000000000000000000000000000000000000000000008152506040518060400160405280601481526020017f68747470733a2f2f7777772e6566662e6f72672f00000000000000000000000081525062000d3e60201b60201c565b620003a473998f25be40241ca5d8f5fcaf3591b5ed06ef3be76040518060400160405280601081526020017f46726565646f6d206f66205072657373000000000000000000000000000000008152506040518060400160405280601681526020017f68747470733a2f2f66726565646f6d2e70726573732f0000000000000000000081525062000d3e60201b60201c565b6200043573e000c5e5e74472b3584427c115712eb325cf3ff56040518060400160405280601081526020017f436f646520666f7220416d6572696361000000000000000000000000000000008152506040518060400160405280601f81526020017f68747470733a2f2f7777772e636f6465666f72616d65726963612e6f72672f0081525062000d3e60201b60201c565b620004aa73ef0050248ae8e5559bdc6357cc2574fcdf4348376040518060400160405280601481526020017f466967687420666f7220746865204675747572650000000000000000000000008152506040518060600160405280602281526020016200277d6022913962000d3e60201b60201c565b6200053b73c7464dbca260a8faf033460622b23467df5aea426040518060400160405280600d81526020017f47697665204469726563746c79000000000000000000000000000000000000008152506040518060400160405280601d81526020017f68747470733a2f2f7777772e676976656469726563746c792e6f72672f00000081525062000d3e60201b60201c565b620005cc737cf2ebb5ca55a8bd671a020f8bdbaf07f60f26c16040518060400160405280600981526020017f476976652057656c6c00000000000000000000000000000000000000000000008152506040518060400160405280601981526020017f68747470733a2f2f7777772e6769766577656c6c2e6f72672f0000000000000081525062000d3e60201b60201c565b62000641733ea5f030ade93a8d0400dcbdac259e7348164fc16040518060400160405280601381526020017f496e646578206f662043656e736f727368697000000000000000000000000000815250604051806060016040528060228152602001620027386022913962000d3e60201b60201c565b620006d27395a647b3d8a3f11176badb799b9499c671fa243a6040518060400160405280600c81526020017f4b68616e2041636164656d7900000000000000000000000000000000000000008152506040518060400160405280601c81526020017f68747470733a2f2f7777772e6b68616e61636164656d792e6f72672f0000000081525062000d3e60201b60201c565b620007637319ddd94b94d3c68385c897846ab44ac99dbfae0f6040518060400160405280600b81526020017f546f722050726f6a6563740000000000000000000000000000000000000000008152506040518060400160405280601b81526020017f68747470733a2f2f7777772e746f7270726f6a6563742e6f72672f000000000081525062000d3e60201b60201c565b620007f4733a9f94de63612f4a117adf20f745bd420d148ac16040518060400160405280601281526020017f554e49434546204e6577205a65616c616e6400000000000000000000000000008152506040518060400160405280601a81526020017f68747470733a2f2f7777772e756e696365662e6f72672e6e7a2f00000000000081525062000d3e60201b60201c565b6200088573c94bd2b79921daa2395eb74934d867346c4c71d46040518060400160405280601081526020017f5261696e666f72657374205472757374000000000000000000000000000000008152506040518060400160405280602081526020017f68747470733a2f2f7777772e7261696e666f7265737474727573742e6f72672f81525062000d3e60201b60201c565b62000916730332bfeb38bf8b225ceedf1ebf5f0e3af0bb81cc6040518060400160405280600c81526020017f4f70656e204c69627261727900000000000000000000000000000000000000008152506040518060400160405280601881526020017f68747470733a2f2f6f70656e6c6962726172792e6f72672f000000000000000081525062000d3e60201b60201c565b620009a773e0c83d05db000393b22f85432f047167a5d650a86040518060400160405280600c81526020017f46726565436f646543616d7000000000000000000000000000000000000000008152506040518060400160405280601d81526020017f68747470733a2f2f7777772e66726565636f646563616d702e6f72672f00000081525062000d3e60201b60201c565b62000a3873682e9f760c5be1a954a3e0499c5fb43faf4b86fb6040518060400160405280600e81526020017f446576656c6f70204166726963610000000000000000000000000000000000008152506040518060400160405280601e81526020017f68747470733a2f2f7777772e646576656c6f706166726963612e6f72672f000081525062000d3e60201b60201c565b62000ac9730aad8b37e1f9a2aa3088c5bd3235bb120f40e8ad6040518060400160405280601481526020017f546865204c7570757320466f756e646174696f6e0000000000000000000000008152506040518060400160405280601681526020017f68747470733a2f2f7777772e6c757075732e6f72672f0000000000000000000081525062000d3e60201b60201c565b62000b3e736b0d647af6c9ff7ce6d507849eabf649d045623e6040518060400160405280601581526020017f506174687761797320746f20456475636174696f6e0000000000000000000000815250604051806060016040528060338152602001620027c36033913962000d3e60201b60201c565b62000bb3730a91bc5990ebb27131ff81e97e7e2339433d16716040518060400160405280601581526020017f5261696e666f7265737420466f756e646174696f6e00000000000000000000008152506040518060600160405280602481526020016200279f6024913962000d3e60201b60201c565b62092c7060058190555042600481905550600160009054906101000a900473ffffffffffffffffffffffffffffffffffffffff1642604051602001808373ffffffffffffffffffffffffffffffffffffffff1673ffffffffffffffffffffffffffffffffffffffff1660601b81526014018281526020019250505060405160208183030381529060405280519060200120600981905550600060095433604051602001808381526020018273ffffffffffffffffffffffffffffffffffffffff1673ffffffffffffffffffffffffffffffffffffffff1660601b815260140192505050604051602081830303815290604052805190602001209050600380805490508260001c8162000cc157fe5b068154811062000ccd57fe5b9060005260206000200160009054906101000a900473ffffffffffffffffffffffffffffffffffffffff166000806101000a81548173ffffffffffffffffffffffffffffffffffffffff021916908373ffffffffffffffffffffffffffffffffffffffff1602179055505062000fc9565b600160009054906101000a900473ffffffffffffffffffffffffffffffffffffffff1673ffffffffffffffffffffffffffffffffffffffff163373ffffffffffffffffffffffffffffffffffffffff161462000d9957600080fd5b600260008473ffffffffffffffffffffffffffffffffffffffff1673ffffffffffffffffffffffffffffffffffffffff16815260200190815260200160002060020160009054906101000a900460ff161562000df457600080fd5b604051806060016040528083815260200182815260200160011515815250600260008573ffffffffffffffffffffffffffffffffffffffff1673ffffffffffffffffffffffffffffffffffffffff168152602001908152602001600020600082015181600001908051906020019062000e6f92919062000f1a565b50602082015181600101908051906020019062000e8e92919062000f1a565b5060408201518160020160006101000a81548160ff0219169083151502179055509050506003839080600181540180825580915050600190039060005260206000200160009091909190916101000a81548173ffffffffffffffffffffffffffffffffffffffff021916908373ffffffffffffffffffffffffffffffffffffffff160217905550505050565b828054600181600116156101000203166002900490600052602060002090601f016020900481019282601f1062000f5d57805160ff191683800117855562000f8e565b8280016001018555821562000f8e579182015b8281111562000f8d57825182559160200191906001019062000f70565b5b50905062000f9d919062000fa1565b5090565b62000fc691905b8082111562000fc257600081600090555060010162000fa8565b5090565b90565b61175f8062000fd96000396000f3fe6080604052600436106100ec5760003560e01c8063999c89e81161008a578063bc39206e11610059578063bc39206e14610828578063ee2ac05f1461087f578063f00cab2f146108aa578063f4fd3ce0146108d5576101cd565b8063999c89e8146105d1578063a2916caf14610745578063abefe5911461079c578063bc0bc97a146107ed576101cd565b80633ccfd60b116100c65780633ccfd60b1461050d5780634f99b7c514610524578063658be92f1461054f5780638da5cb5b1461057a576101cd565b8063139580fe146101d25780632478239a1461024d5780633843058f1461038e576101cd565b366101cd5760003411156101655734600754016007819055506000809054906101000a900473ffffffffffffffffffffffffffffffffffffffff1673ffffffffffffffffffffffffffffffffffffffff166108fc479081150290604051600060405180830381858888f1935050505061016457600080fd5b5b6005546004540142106101cb574260048190555062092c7060058190555061018b610900565b6000806101000a81548173ffffffffffffffffffffffffffffffffffffffff021916908373ffffffffffffffffffffffffffffffffffffffff1602179055505b005b600080fd5b3480156101de57600080fd5b5061020b600480360360208110156101f557600080fd5b8101908080359060200190929190505050610b74565b604051808273ffffffffffffffffffffffffffffffffffffffff1673ffffffffffffffffffffffffffffffffffffffff16815260200191505060405180910390f35b34801561025957600080fd5b5061029c6004803603602081101561027057600080fd5b81019080803573ffffffffffffffffffffffffffffffffffffffff169060200190929190505050610bb0565b60405180806020018060200184151515158152602001838103835286818151815260200191508051906020019080838360005b838110156102ea5780820151818401526020810190506102cf565b50505050905090810190601f1680156103175780820380516001836020036101000a031916815260200191505b50838103825285818151815260200191508051906020019080838360005b83811015610350578082015181840152602081019050610335565b50505050905090810190601f16801561037d5780820380516001836020036101000a031916815260200191505b509550505050505060405180910390f35b34801561039a57600080fd5b5061050b600480360360608110156103b157600080fd5b81019080803573ffffffffffffffffffffffffffffffffffffffff169060200190929190803590602001906401000000008111156103ee57600080fd5b82018360208201111561040057600080fd5b8035906020019184600183028401116401000000008311171561042257600080fd5b91908080601f016020809104026020016040519081016040528093929190818152602001838380828437600081840152601f19601f8201169050808301925050505050505091929192908035906020019064010000000081111561048557600080fd5b82018360208201111561049757600080fd5b803590602001918460018302840111640100000000831117156104b957600080fd5b91908080601f016020809104026020016040519081016040528093929190818152602001838380828437600081840152601f19601f820116905080830192505050505050509192919290505050610d17565b005b34801561051957600080fd5b50610522610eed565b005b34801561053057600080fd5b5061053961126a565b6040518082815260200191505060405180910390f35b34801561055b57600080fd5b50610564611270565b6040518082815260200191505060405180910390f35b34801561058657600080fd5b5061058f61127d565b604051808273ffffffffffffffffffffffffffffffffffffffff1673ffffffffffffffffffffffffffffffffffffffff16815260200191505060405180910390f35b3480156105dd57600080fd5b50610620600480360360208110156105f457600080fd5b81019080803573ffffffffffffffffffffffffffffffffffffffff1690602001909291905050506112a3565b604051808573ffffffffffffffffffffffffffffffffffffffff1673ffffffffffffffffffffffffffffffffffffffff168152602001806020018060200184151515158152602001838103835286818151815260200191508051906020019080838360005b838110156106a0578082015181840152602081019050610685565b50505050905090810190601f1680156106cd5780820380516001836020036101000a031916815260200191505b50838103825285818151815260200191508051906020019080838360005b838110156107065780820151818401526020810190506106eb565b50505050905090810190601f1680156107335780820380516001836020036101000a031916815260200191505b50965050505050505060405180910390f35b34801561075157600080fd5b5061075a6114c6565b604051808273ffffffffffffffffffffffffffffffffffffffff1673ffffffffffffffffffffffffffffffffffffffff16815260200191505060405180910390f35b3480156107a857600080fd5b506107eb600480360360208110156107bf57600080fd5b81019080803573ffffffffffffffffffffffffffffffffffffffff1690602001909291905050506114eb565b005b3480156107f957600080fd5b506108266004803603602081101561081057600080fd5b810190808035906020019092919050505061160e565b005b34801561083457600080fd5b5061083d610900565b604051808273ffffffffffffffffffffffffffffffffffffffff1673ffffffffffffffffffffffffffffffffffffffff16815260200191505060405180910390f35b34801561088b57600080fd5b50610894611672565b6040518082815260200191505060405180910390f35b3480156108b657600080fd5b506108bf611678565b6040518082815260200191505060405180910390f35b3480156108e157600080fd5b506108ea61167e565b6040518082815260200191505060405180910390f35b6000600160009054906101000a900473ffffffffffffffffffffffffffffffffffffffff1673ffffffffffffffffffffffffffffffffffffffff163373ffffffffffffffffffffffffffffffffffffffff161461095c57600080fd5b600160009054906101000a900473ffffffffffffffffffffffffffffffffffffffff1642604051602001808373ffffffffffffffffffffffffffffffffffffffff1673ffffffffffffffffffffffffffffffffffffffff1660601b81526014018281526020019250505060405160208183030381529060405280519060200120600981905550600060095433604051602001808381526020018273ffffffffffffffffffffffffffffffffffffffff1673ffffffffffffffffffffffffffffffffffffffff1660601b815260140192505050604051602081830303815290604052805190602001209050600380805490508260001c81610a5857fe5b0681548110610a6357fe5b9060005260206000200160009054906101000a900473ffffffffffffffffffffffffffffffffffffffff166000806101000a81548173ffffffffffffffffffffffffffffffffffffffff021916908373ffffffffffffffffffffffffffffffffffffffff160217905550600260008060009054906101000a900473ffffffffffffffffffffffffffffffffffffffff1673ffffffffffffffffffffffffffffffffffffffff1673ffffffffffffffffffffffffffffffffffffffff16815260200190815260200160002060020160009054906101000a900460ff16610b4c57610b4a610900565b505b6000809054906101000a900473ffffffffffffffffffffffffffffffffffffffff1691505090565b60038181548110610b8157fe5b906000526020600020016000915054906101000a900473ffffffffffffffffffffffffffffffffffffffff1681565b6002602052806000526040600020600091509050806000018054600181600116156101000203166002900480601f016020809104026020016040519081016040528092919081815260200182805460018160011615610100020316600290048015610c5c5780601f10610c3157610100808354040283529160200191610c5c565b820191906000526020600020905b815481529060010190602001808311610c3f57829003601f168201915b505050505090806001018054600181600116156101000203166002900480601f016020809104026020016040519081016040528092919081815260200182805460018160011615610100020316600290048015610cfa5780601f10610ccf57610100808354040283529160200191610cfa565b820191906000526020600020905b815481529060010190602001808311610cdd57829003601f168201915b5050505050908060020160009054906101000a900460ff16905083565b600160009054906101000a900473ffffffffffffffffffffffffffffffffffffffff1673ffffffffffffffffffffffffffffffffffffffff163373ffffffffffffffffffffffffffffffffffffffff1614610d7157600080fd5b600260008473ffffffffffffffffffffffffffffffffffffffff1673ffffffffffffffffffffffffffffffffffffffff16815260200190815260200160002060020160009054906101000a900460ff1615610dcb57600080fd5b604051806060016040528083815260200182815260200160011515815250600260008573ffffffffffffffffffffffffffffffffffffffff1673ffffffffffffffffffffffffffffffffffffffff1681526020019081526020016000206000820151816000019080519060200190610e44929190611684565b506020820151816001019080519060200190610e61929190611684565b5060408201518160020160006101000a81548160ff0219169083151502179055509050506003839080600181540180825580915050600190039060005260206000200160009091909190916101000a81548173ffffffffffffffffffffffffffffffffffffffff021916908373ffffffffffffffffffffffffffffffffffffffff160217905550505050565b600073261b45d85ccfeabb11f022eba346ee8d1cd488c0905060008173ffffffffffffffffffffffffffffffffffffffff166370a08231306040518263ffffffff1660e01b8152600401808273ffffffffffffffffffffffffffffffffffffffff1673ffffffffffffffffffffffffffffffffffffffff16815260200191505060206040518083038186803b158015610f8557600080fd5b505afa158015610f99573d6000803e3d6000fd5b505050506040513d6020811015610faf57600080fd5b810190808051906020019092919050505011610fca57600080fd5b8073ffffffffffffffffffffffffffffffffffffffff1663095ea7b3306127106040518363ffffffff1660e01b8152600401808373ffffffffffffffffffffffffffffffffffffffff1673ffffffffffffffffffffffffffffffffffffffff16815260200182815260200192505050602060405180830381600087803b15801561105357600080fd5b505af1158015611067573d6000803e3d6000fd5b505050506040513d602081101561107d57600080fd5b8101908080519060200190929190505050508073ffffffffffffffffffffffffffffffffffffffff166370a08231306040518263ffffffff1660e01b8152600401808273ffffffffffffffffffffffffffffffffffffffff1673ffffffffffffffffffffffffffffffffffffffff16815260200191505060206040518083038186803b15801561110c57600080fd5b505afa158015611120573d6000803e3d6000fd5b505050506040513d602081101561113657600080fd5b81019080805190602001909291905050506008819055508073ffffffffffffffffffffffffffffffffffffffff166323b872dd306000809054906101000a900473ffffffffffffffffffffffffffffffffffffffff166008546040518463ffffffff1660e01b8152600401808473ffffffffffffffffffffffffffffffffffffffff1673ffffffffffffffffffffffffffffffffffffffff1681526020018373ffffffffffffffffffffffffffffffffffffffff1673ffffffffffffffffffffffffffffffffffffffff1681526020018281526020019350505050602060405180830381600087803b15801561122b57600080fd5b505af115801561123f573d6000803e3d6000fd5b505050506040513d602081101561125557600080fd5b81019080805190602001909291905050505050565b60045481565b6000600380549050905090565b600160009054906101000a900473ffffffffffffffffffffffffffffffffffffffff1681565b6000606080600084600260008773ffffffffffffffffffffffffffffffffffffffff1673ffffffffffffffffffffffffffffffffffffffff168152602001908152602001600020600001600260008873ffffffffffffffffffffffffffffffffffffffff1673ffffffffffffffffffffffffffffffffffffffff168152602001908152602001600020600101600260008973ffffffffffffffffffffffffffffffffffffffff1673ffffffffffffffffffffffffffffffffffffffff16815260200190815260200160002060020160009054906101000a900460ff16828054600181600116156101000203166002900480601f0160208091040260200160405190810160405280929190818152602001828054600181600116156101000203166002900480156114145780601f106113e957610100808354040283529160200191611414565b820191906000526020600020905b8154815290600101906020018083116113f757829003601f168201915b50505050509250818054600181600116156101000203166002900480601f0160208091040260200160405190810160405280929190818152602001828054600181600116156101000203166002900480156114b05780601f10611485576101008083540402835291602001916114b0565b820191906000526020600020905b81548152906001019060200180831161149357829003601f168201915b5050505050915093509350935093509193509193565b6000809054906101000a900473ffffffffffffffffffffffffffffffffffffffff1681565b600160009054906101000a900473ffffffffffffffffffffffffffffffffffffffff1673ffffffffffffffffffffffffffffffffffffffff163373ffffffffffffffffffffffffffffffffffffffff161461154557600080fd5b60008090505b60038054905081101561160a578173ffffffffffffffffffffffffffffffffffffffff166003828154811061157c57fe5b9060005260206000200160009054906101000a900473ffffffffffffffffffffffffffffffffffffffff1673ffffffffffffffffffffffffffffffffffffffff16146115fd57600381815481106115cf57fe5b9060005260206000200160006101000a81549073ffffffffffffffffffffffffffffffffffffffff02191690555b808060010191505061154b565b5050565b600160009054906101000a900473ffffffffffffffffffffffffffffffffffffffff1673ffffffffffffffffffffffffffffffffffffffff163373ffffffffffffffffffffffffffffffffffffffff161461166857600080fd5b8060058190555050565b60075481565b60055481565b60085481565b828054600181600116156101000203166002900490600052602060002090601f016020900481019282601f106116c557805160ff19168380011785556116f3565b828001600101855582156116f3579182015b828111156116f25782518255916020019190600101906116d7565b5b5090506117009190611704565b5090565b61172691905b8082111561172257600081600090555060010161170a565b5090565b9056fea264697066735822122001658d8d569e13171ec6fd023e4717c5a224001d2fc56a1111ad9f58cd6da28564736f6c6343000602003368747470733a2f2f7777772e696e6465786f6e63656e736f72736869702e6f72672f68747470733a2f2f62726561737463616e636572737570706f72742e6f72672e756b2f68747470733a2f2f7777772e6669676874666f727468656675747572652e6f72672f68747470733a2f2f7777772e7261696e666f72657374666f756e646174696f6e2e6f726768747470733a2f2f7777772e7061746877617973746f656475636174696f6e2e63612f646f6e6174652d657468657265756d2f",
  "source": "pragma solidity ^0.6.1;\n\n\n/**\n* Give Together\n* a no loss way to give to a\n* new charity each week\n* @author Lucas Kohorst\n* @dev This contract accepts ERC20 token which\n* if the donation time is past will forward the \n* tokens to a new charity each week. This can be \n* used stand alone but is intended to be designated\n* as a hat in the rToken project https://github.com/rtoken-project/rtoken-contracts\n* accured interest will be redeemed at this contract address\n* which will then be sent to the charity of the week\n*/\nabstract contract ERC20Token {\n   function transferFrom(address sender, address recipient, uint256 amount) virtual external returns (bool);\n   function balanceOf(address owner) virtual external view returns (uint256);\n   function approve(address spender, uint256 amount) virtual external returns (bool);\n}\ncontract GiveTogether  {\n    address payable public currentCharity;\n    address public owner;\n    mapping (address => Charity) public charities;\n    address payable [] public charityAccts;\n\n    uint256 public currentDate;\n    uint256 public sendDonationTime;\n    uint256 private oneWeek = 1 weeks;\n    uint256 public totalDonation;\n    uint256 public rDaiBalance;\n    bytes32 private N;\n\n    struct Charity  {\n        string name;\n        string website;\n        bool isCharity;\n    }\n\n    /**\n    * Modifier for owner specific functions\n    */\n    modifier isOwner() {\n        if (msg.sender != owner) revert();\n        _;\n    }\n\n    /**\n    * Constructor only run on contract creation\n    * adds intial charities, sets owner\n    * sets current date, current charity and \n    * current donation time\n    */\n    constructor() public {\n        // Setting the owner\n        owner = msg.sender;\n\n        // Adding intial charities\n        addCharity(0xD3F81260a44A1df7A7269CF66Abd9c7e4f8CdcD1, \"Heifer\", \"https://www.heifer.org/\"); \n        addCharity(0xc1D5FD1F0D969075040988e37Df3643Af724995D, \"Grace Aid\", \"https://graceaid.org/\");\n        addCharity(0x6e4C6ADFA15cADa2699Fd2c16290ea1F71D0f9D7, \"Breast Cancer Support (UK)\", \"https://breastcancersupport.org.uk/\");\n        addCharity(0x50990F09d4f0cb864b8e046e7edC749dE410916b, \"350\", \"https://350.org/\");\n        addCharity(0xb189f76323678E094D4996d182A792E52369c005, \"EFF\", \"https://www.eff.org/\");\n        addCharity(0x998F25Be40241CA5D8F5fCaF3591B5ED06EF3Be7, \"Freedom of Press\", \"https://freedom.press/\");\n        addCharity(0xE000c5E5E74472B3584427c115712Eb325cf3ff5, \"Code for America\", \"https://www.codeforamerica.org/\");\n        addCharity(0xEF0050248aE8E5559Bdc6357cc2574fcDF434837, \"Fight for the Future\", \"https://www.fightforthefuture.org/\");\n        addCharity(0xc7464dbcA260A8faF033460622B23467Df5AEA42, \"Give Directly\", \"https://www.givedirectly.org/\");\n        addCharity(0x7cF2eBb5Ca55A8bd671A020F8BDbAF07f60F26C1, \"Give Well\", \"https://www.givewell.org/\");\n        addCharity(0x3ea5f030ade93A8D0400dcbDAC259e7348164fc1, \"Index of Censorship\", \"https://www.indexoncensorship.org/\");\n        addCharity(0x95a647B3d8a3F11176BAdB799b9499C671fa243a, \"Khan Academy\", \"https://www.khanacademy.org/\");\n        addCharity(0x19DdD94B94D3c68385c897846AB44Ac99DBFAe0f, \"Tor Project\", \"https://www.torproject.org/\");\n        addCharity(0x3a9f94DE63612f4A117Adf20F745bd420d148ac1, \"UNICEF New Zealand\", \"https://www.unicef.org.nz/\");\n        addCharity(0xC94BD2b79921DAa2395EB74934D867346C4C71d4, \"Rainforest Trust\", \"https://www.rainforesttrust.org/\");\n        addCharity(0x0332bfEB38bF8b225cEEdF1EbF5F0e3Af0bb81CC, \"Open Library\", \"https://openlibrary.org/\");\n        addCharity(0xe0c83D05DB000393B22F85432F047167a5d650a8, \"FreeCodeCamp\", \"https://www.freecodecamp.org/\");\n        addCharity(0x682E9f760C5Be1A954A3e0499c5fb43faf4B86fB, \"Develop Africa\", \"https://www.developafrica.org/\");\n        addCharity(0x0AAD8B37E1f9a2AA3088c5bd3235bB120F40E8aD, \"The Lupus Foundation\", \"https://www.lupus.org/\");\t\n        addCharity(0x6B0d647Af6c9ff7CE6D507849eAbF649D045623e, \"Pathways to Education\", \"https://www.pathwaystoeducation.ca/donate-ethereum/\");\n        addCharity(0x0a91BC5990ebB27131FF81E97E7e2339433d1671, \"Rainforest Foundation\", \"https://www.rainforestfoundation.org\");\n\n        // Setting the default donation time\n        // to an hour before a week is over\n        sendDonationTime = 1 weeks - 1 hours;\n        currentDate = now;\n        // Generating random charity from hash of address\n        // Setting the nonce with the owner of the contract and time\n        N = keccak256(abi.encodePacked(owner, now));\n        bytes32 hash = keccak256(abi.encodePacked(N, msg.sender));\n        currentCharity = charityAccts[uint(hash) % charityAccts.length];\n    }   \n    \n    /**\n    * Default payable function; Gets called when an ERC20 token is sent\n    * to the contracta nd forwards\n    * it to the destination address\n    * which is the charity of the week\n    */\n    receive() external payable {\n        // Checking that there is an ERC20 token being sent \n        // and that the donation time is passed\n        if (msg.value > 0) {\n            // Adding to total donation\n            totalDonation = totalDonation +  msg.value;\n            // Sending any ETH in the account\n            if (!currentCharity.send(address(this).balance)) revert();\n            // Getting rDAI address to send\n            // ERC20Token tok = ERC20Token(0x261b45D85cCFeAbb11F022eBa346ee8D1cd488c0);\n            // rDaiBalance = tok.balanceOf(address(this));\n            // tok.transferFrom(address(this), currentCharity, rDaiBalance);\n        }\n        // Getting a new charity and send donation time\n        // are less than current time that means\n        // the previous charity expired\n        if(now >= currentDate + sendDonationTime) {\n           currentDate = now;\n           sendDonationTime = 1 weeks - 1 hours;\n           currentCharity = generateNewCharity();\n        }\n    }\n\n\n    /**\n    * If need a new charity can be generated\n    * @return currentCharity the address of the current charity\n    * @dev only callable by owner\n    */\n    function generateNewCharity() public isOwner returns (address payable) {\n        // Generating new nonce from the owner and the time\n        N = keccak256(abi.encodePacked(owner, now));\n        bytes32 hash = keccak256(abi.encodePacked(N, msg.sender));\n        currentCharity = charityAccts[uint(hash) % charityAccts.length];\n        if (!charities[currentCharity].isCharity) generateNewCharity();\n        return currentCharity;\n    }\n\n    /**\n    * Withdraws rDAI and ETH balance to current charity\n    */\n    function withdraw() public {\n        ERC20Token tok = ERC20Token(0x261b45D85cCFeAbb11F022eBa346ee8D1cd488c0);\n        require(tok.balanceOf(address(this)) > 0);\n        tok.approve(address(this), 10000);\n        rDaiBalance = tok.balanceOf(address(this));\n        tok.transferFrom(address(this), currentCharity, rDaiBalance);\n    }\n\n    /**\n    * Adds a charity if it is not there already\n    * @param _addr charity's donation address\n    * @param _name charity's name\n    * @param _website charity's website\n    * @dev only callable by owner\n    */\n    function addCharity(address payable _addr, string memory _name, string memory _website) public isOwner {\n        if (charities[_addr].isCharity) revert();\n        charities[_addr] = Charity(_name, _website, true);\n        charityAccts.push(_addr);\n    }\n\n    /**\n    * Removes a charity\n    * @param _addr charity's donation address\n    * @dev only callable by owner\n    * @dev https://ethereum.stackexchange.com/questions/1527/how-to-delete-an-element-at-a-certain-index-in-an-array\n    */\n    function removeCharity(address payable _addr) public isOwner {\n       for (uint i = 0; i < charityAccts.length; i++) {\n           if (charityAccts[i] != _addr) {\n               // Will leave empty space in the array\n               delete charityAccts[i];\n           }\n       }\n    }\n\n    /**\n    * Sets time to generate new charity\n    * @param _time donation time\n    */\n    function setSendDonationTime(uint256 _time) public isOwner {\n        sendDonationTime = _time;\n    }\n\n\n    /**\n    * Gets name and website for each charity\n    * based on addres\n    * @param addr address to get charity by\n    * @return addr address of the charity\n    * @return name charity name\n    * @return website charity's website\n    */\n    function getCharities(address addr) public view returns (address, string memory, string memory, bool) {\n        return (addr, charities[addr].name, charities[addr].website, charities[addr].isCharity);\n    }\n\n    /** \n    * Get number of charities\n    * @return charityAccts length how many charities there are\n    */\n    function getNumCharities() public view returns(uint) {\n        return charityAccts.length;\n    }\n\n}",
  "sourcePath": "/Users/lucaskohorst/Desktop/GitHub/contracts/contracts/GiveTogether.sol",
  "compiler": {
    "name": "solc",
    "version": "0.6.2+commit.bacdbe57.Emscripten.clang"
  },
  "schemaVersion": "3.0.20",
  "updatedAt": "2020-02-03T15:38:45.393Z",
  "networkType": "ethereum",
  "devdoc": {
    "methods": {
      "addCharity(address,string,string)": {
        "details": "only callable by owner",
        "params": {
          "_addr": "charity's donation address",
          "_name": "charity's name",
          "_website": "charity's website"
        }
      },
      "generateNewCharity()": {
        "details": "only callable by owner",
        "returns": {
          "_0": "currentCharity the address of the current charity"
        }
      },
      "getCharities(address)": {
        "params": {
          "addr": "address to get charity by"
        },
        "returns": {
          "_0": "addr address of the charity",
          "_1": "name charity name",
          "_2": "website charity's website"
        }
      },
      "removeCharity(address)": {
        "details": "only callable by ownerhttps://ethereum.stackexchange.com/questions/1527/how-to-delete-an-element-at-a-certain-index-in-an-array",
        "params": {
          "_addr": "charity's donation address"
        }
      },
      "setSendDonationTime(uint256)": {
        "params": {
          "_time": "donation time"
        }
      }
    }
  },
  "userdoc": {
    "methods": {
      "addCharity(address,string,string)": {
        "notice": "Adds a charity if it is not there already"
      },
      "constructor": "Constructor only run on contract creation adds intial charities, sets owner sets current date, current charity and  current donation time",
      "generateNewCharity()": {
        "notice": "If need a new charity can be generated"
      },
      "getCharities(address)": {
        "notice": "Gets name and website for each charity based on addres"
      },
      "getNumCharities()": {
        "notice": "Get number of charities"
      },
      "removeCharity(address)": {
        "notice": "Removes a charity"
      },
      "setSendDonationTime(uint256)": {
        "notice": "Sets time to generate new charity"
      },
      "withdraw()": {
        "notice": "Withdraws rDAI and ETH balance to current charity"
      }
    }
  }
}